:100000000C9472000C947E000C947E000C947E0084
:100010000C947E000C947E000C947E000C947E0068
:100020000C947E000C947E000C947E000C947E0058
:100030000C947E000C947E000C947E000C947E0048
:100040000C947E000C947E000C947E000C947E0038
:100050000C947E000C947E000C947E000C947E0028
:100060000C947E000C947E000C947E000C947E0018
:100070000C947E000C947E000C947E000C947E0008
:100080000C947E000C947E000C947E000C947E00F8
:100090000C947E000C947E000C947E000C947E00E8
:1000A0000C947E000C947E000C947E000C947E00D8
:1000B0000C947E000C947E000C947E000C947E00C8
:1000C0000C947E000C947E000C947E000C947E00B8
:1000D0000C947E000C947E000C947E000C947E00A8
:1000E0000C947E0011241FBECFEFD1E2DEBFCDBF46
:1000F00000E00CBF0E9499000C94C0000C9400001A
:100100000CE31FEF2FEF2A95F1F71A95D9F70A950F
:10011000C1F70895279A2F9A432F0E9480004A958D
:10012000E1F72F98432F0E9480004A95E1F7089548
:1001300000C0B2E0A0E024E12D9324E12D9324E15E
:100140002D9324E12D9324E12D9324E12D9324E19B
:100150002D9324E12D93B2E0A0E0D2E0C8E00E940C
:10016000B50038830E948A00FDCF98E080E07D9141
:10017000870F9A95E1F785958595859588830895EC
:04018000F894FFCF21
:0A0184000000000000000000000071
:00000001FF
