:100000000C9472000C947E000C947E000C947E0084
:100010000C947E000C947E000C947E000C947E0068
:100020000C947E000C947E000C947E000C947E0058
:100030000C947E000C947E000C947E000C947E0048
:100040000C947E000C947E000C947E000C947E0038
:100050000C947E000C947E000C947E000C947E0028
:100060000C947E000C947E000C947E000C947E0018
:100070000C947E000C947E000C947E000C947E0008
:100080000C947E000C947E000C947E000C947E00F8
:100090000C947E000C947E000C947E000C947E00E8
:1000A0000C947E000C947E000C947E000C947E00D8
:1000B0000C947E000C947E000C947E000C947E00C8
:1000C0000C947E000C947E000C947E000C947E00B8
:1000D0000C947E000C947E000C947E000C947E00A8
:1000E0000C947E0011241FBECFEFD1E2DEBFCDBF46
:1000F00000E00CBF0E9499000C94CB000C9400000F
:100100000CE31FEF2FEF2A95F1F71A95D9F70A950F
:10011000C1F70895279A2F9A432F0E9480004A958D
:10012000E1F72F98432F0E9480004A95E1F7089548
:1001300000C0B2E0A0E021E82D9321E82D9321E852
:100140002D9321E82D9321E82D9321E82D9321E88B
:100150002D9321E82D93B2E0A0E0D2E0C8E00E9408
:10016000B50038830E948A0000C098E080E070E00B
:1001700050E04FEF6D91860F751F65170CF001C0B1
:10018000741F9A95B9F775958795759587957595A7
:0A019000879588830895F894FFCF47
:0A019A00000000000000000000005B
:00000001FF
